:100000003CC600004CC600004AC6000048C60000BE
:1000100046C600000C94CD3142C600000C94D60EAA
:100020003EC600003CC600000C941C270C94BC315A
:100030000C94C1310C94F82632C6000030C6000082
:100040000C949B312CC600002AC6000028C6000074
:1000500026C600000C94D70E22C6000020C6000061
:100060001EC600001CC60000302DB3E4BB19A0E082
:10007000EF93FF93F0E0000000000000000000009C
:1000800000000000EB2F25B9E5B83A9519F0AA0D4C
:10009000E109099404B9FF91EF9181FF99C0A7B1DB
:1000A000A760A7B995C04F925F921F93512C5A94A5
:1000B00081FF02C09F9297B07F9270907C00E62FE4
:1000C000F72F903009F49395E5B8C4B8B7EFB09323
:1000D0007A00A5E0A0937B00A8E0A0938100109295
:1000E0008000AFEFA0938500A0938400A6E0A093CA
:1000F000360010928B0010928A0085FF09C0A3E0A1
:10010000A0938B00AA95A0938500AFEFA0938400E5
:100110008F939F939EE285FD9EEE80E0B501785F10
:1001200076956795769567950E94FB3D062E03941C
:100130009F918F91B6E0AFE7A91B51E0392F363080
:1001400085FD33302AF0A058B94F53953650F7CF7C
:10015000B0938900A0938800A0917A00A4FFFCCFFF
:10016000B7EBB0937A00A2E0A0936F00A9E0A09350
:10017000810062E0A0E0A0937B00A1E0A093530087
:100180008895E5B8C4B884FF19C0A3E4AA95F1F72F
:10019000EF93FF93E7B1F8B1A4E0C2FCA2E0C0FC8A
:1001A000A1E0BF2FBA2BAE2BB8B904B9A7B9E7B9F4
:1001B000F8B9FF91EF910CC00C94BD0087FD54CFAE
:1001C000A6E40000AA95F1F725B9E5B8000004B946
:1001D000A0918400A0918500B0918900A395AB17F0
:1001E00058F781FF09C0A81539F4A0918400A091A7
:1001F0008500A815D1F397B8A0917A00A4FFE8CFA5
:10020000B7EBB0937A0083FF0BC073E0523040F03D
:1002100009F471E0372D671709F0387F30937C00BF
:100220006A95B1F6609178007091790057FE05C02B
:100230002B01440C551C440C551C142D352D3695A2
:1002400017953695179582FD611B82FD730B460E3F
:10025000571E308186FD630F6193308186FD731FC9
:1002600080FF7193652F4A95E1F610926F0010920E
:100270008100B7E0B0937A0070927C007F9081FF9C
:1002800002C097B89F901F915F904F900895C2024F
:10029000BB02B40218000720080808F8000000207C
:1002A00060A03FA06020020202FF020202101010B4
:1002B0001F000000050842818989760508C2A191C6
:1002C00089860508000402FF0010100508F8783838
:1002D0005888091003081C3E7F0D080710FF818114
:1002E00081F1E1C1FF4040404743410D080110FF4B
:1002F000FF11080310F1E1C14743410E000820211E
:1003000021122060E0E0E0FEFE0402010001037F14
:100310007F21C2C4C4C04094840007030102040EBC
:10032000080210FEFE7F7F00000000110005202063
:1003300060E0E0E00201000103C2C4C4C040070362
:100340000102040104100102044E6F742063616C09
:10035000696272617465642100B903870358032ED2
:10036000030703E402C302A4028802000014002968
:10037000003E005300690080009700AE00C600DF19
:1003800000F80012012D01490165018201A001BEA2
:1003900001DE01FF012102440268028E02B502DE85
:1003A000020903350364039403C803FE033704738F
:1003B00004B404F90443059305EA054906B3062984
:1003C00007AE074808FF08DE09FD0A930C480F999D
:1003D0001B00000000000000000000000000000002
:1003E000001E2121211200807F0000007E4A4A4A1F
:1003F00034000000000000FC40201008040201004E
:100400000000010101010101010101010101017F60
:100410000488D0E0F0F800000000000000000000B8
:100420000000000000000000FC9494840000010221
:10043000FC0000000000000000000000001E212160
:100440002112E0C0804020100F000000C0202020BA
:1004500040000000FC00009E9E0403030303020012
:100460000000202023242525232020203F00007B7E
:100470007B2142840480C0000000000000000000D6
:100480000000000000FC949484000406070707089D
:10049000F000000000000000000000000000803FAD
:1004A0002121120C00000000FF000000F008484865
:1004B000C80000FE0000E7818181C1E1F1818181F6
:1004C00001002020202121212020203F0000F34096
:1004D000404041434740407FC00000000000000012
:1004E00000000000000000489494946400000000A4
:1004F000FF000000000000000000000000000000FD
:10050000003F2121120C0000FF000000F0084848C5
:10051000D0000000000000FEFE04040404040404F3
:10052000070008080809090908087F3E1C08087F19
:100530007F20202020202020E0000000000000007C
:100540000000000000000000004894949464000043
:10055000FF0000000000000000000000FF003C0A57
:10056000090A3C002231292926000082868E9EBE7F
:10057000FEFEBEDEEFF6FAFEFEFAF2E2C2820000F6
:100580000008080804027984A4A46800FF000000A1
:10059000000000000000000000000000000000005B
:1005A00000000000FF0000F0282428F0001008FCE4
:1005B0000000000000000000000000003C0A090AE2
:1005C0003C00FF00000000000000000000000000F0
:1005D0000000000000040C1C3C7CFF7C3C1C0C0454
:1005E0000000000000009EA1A9A99A804323130BDC
:1005F0000703FF03030303030300000000000000E0
:1006000000000000788484844800FF00000000009F
:1006100000000000F00804E21109090909090909AC
:1006200009091121C2040810E000000001020404BD
:1006300007000000000080402010884423100804B8
:10064000030000000000000000000000FE0100FCAC
:100650000201000000000000000000000000000097
:100660000000000079494979000000000000000006
:100670000000F00804844830403F000810110EE0EC
:100680001008080810E019121C001C1219E00000E4
:100690000000E0007F080808040F0000000C1212A0
:1006A0000C0000000000000000000000000000003E
:1006B000000000000000000000FE0000000000003C
:1006C000370000000000160E00160E0000000000AB
:1006D0000000000020F82020F82000020F02020F86
:1006E00002102844FE8408100304081F080502189D
:1006F0002424984020100402010C12120C10A8446B
:10070000A81000000304080805020500160E0000EA
:100710000000000000000000000000E01C020000DB
:100720000000010E100000000000021CE0000000AC
:1007300000100E010090A0C0F8C0A0900402010FAC
:10074000010204808080F0808080000000070000AB
:100750000000000000000000005838000000008089
:100760008080808080800000000000000000000089
:100770000000000000181800000000000000804089
:1007800020180C020100000000F80482422214F834
:100790000709101010080710080402FE00000000EE
:1007A00000001F00001804020282443818141211BD
:1007B0001010101804424242A41806081010100825
:1007C0000700C0300C02FE0003020202021F027E7C
:1007D00042222222428204081010100807F8442204
:1007E00022224488070810101008070202824222C1
:1007F000120E001F000000000018A4424242A4187C
:1008000007081010100807384482828244F8040850
:10081000101010080700003030000000000006062D
:10082000000000000030300000000000160E000044
:10083000000080402010080400000102040810009D
:100840004040404040400002020202020200040810
:100850001020408000100804020100180402020267
:10086000847800000036010000F80884444448F011
:100870000708111212120BE01008040810E01F0103
:10088000010101011FFE42424242A4181F10101034
:10089000100807F8040202020418070810101008D4
:1008A00006FE0202020204F81F101010100807FED4
:1008B0004242424242021F101010101010FE4242EB
:1008C000424242021F000000000000F804024242BF
:1008D000448807081010100807FE4040404040FEC2
:1008E0001F00000000001F000002FE0200000000C8
:1008F000101F10000000000002FE02000C1010107B
:100900000F0000FEC020100804021F0001020408AE
:1009100010FE0000000000001F101010101010FE4C
:100920000418601804FE1F00000000001FFE1820BD
:10093000C00000FE1F00000001061FF804020202B2
:1009400004F807081010100807FE828282824438DB
:100950001F000000000000F80402020204F807086B
:100960001010120C0FFE8282828244381F00010296
:100970000408101824424242840806081010100887
:1009800007020202FE0202020000001F000000FE39
:100990000000000000FE07081010100807FE00000D
:1009A000000000FE00030C100C0300FE0000C0005D
:1009B00000FE0F10100F10100F0E1020C020100E90
:1009C0001C02010001021C1E20408040201E00006D
:1009D000001F0000000202824222120E1E1110109F
:1009E00010101000FE0202020200003F2020202012
:1009F00000182040800000000000000102041800E0
:100A000002020202FE0000202020203F0010080405
:100A100002040810000000000000000000000000B8
:100A200000002020202020202000000204080000D8
:100A300000000000000000002090909020C00609F7
:100A4000101010091FFE4020202040801F081010A9
:100A5000100807C0201010102040070810101008C0
:100A600004804020202040FE0708101010081FC0FE
:100A70002010101020C00709111111090440F8447A
:100A800042020408001F0000000000C020101010E7
:100A900020F00122444444221FFE402020204080B8
:100AA0001F00000000001F000000E8000000000020
:100AB000001F1000000000000000E800003040406F
:100AC000403F00FE0000804020101F01010204088A
:100AD0001000000002FE0000000000101F1000F0D7
:100AE0002010E01010E01F00001F00001FF0201079
:100AF000101020C01F00000000001FC020101010A8
:100B000020C007081010100807E01010101020C0B7
:100B10007F040808080403C02010101010E003042C
:100B2000080808047FF02010101020401F0000006B
:100B300000000040A010101010200408111111092D
:100B4000062020FE2020000000000F10100C00F0F6
:100B50000000000000F00708101010081FE000005F
:100B6000000000E001060810080601E00000000097
:100B700000E00F10100E10100F3040800080403049
:100B800018040201020418F00000000000F02142E5
:100B9000444444221F1010101090503018141211A9
:100BA0001010108040380402020000010E102020B6
:100BB00000000000FE0000000000003F00000000F8
:100BC000020204384080002020100E0100080402B8
:100BD00004080402000000000000008040201020F3
:100BE00040800704040404040740F010101010F0C3
:100BF00040000101010101010040FCF8F0E040FC6F
:100C000040000703010000070040FC40E0F0F8FC52
:100C100040000700000103070040FCFC0000FCFC52
:100C2000400007070000070700F808080808080840
:100C30000803020202020202020808080808080863
:100C4000F8020202020202020340404040404040DB
:100C5000400000000000000000C000008000000014
:100C60008007080B040B080B04000000800000C084
:100C7000400B080B040B0807000011241FBECFEF28
:100C8000D8E0DEBFCDBF21E0A0E0B1E001C01D9201
:100C9000A23CB207E1F70E948C130C94443FB0C908
:100CA0005D98559A80FD599A80FF5998519A539AA8
:100CB0005A9867FD5B9A67FF5B985A9A5A9866FD47
:100CC0005B9A66FF5B985A9A5A9865FD5B9A65FF36
:100CD0005B985A9A5A9864FD5B9A64FF5B985A9A9B
:100CE0005A9863FD5B9A63FF5B985A9A5A9862FD23
:100CF0005B9A62FF5B985A9A5A9861FD5B9A61FF12
:100D00005B985A9A5A9860FD5B9A60FF5B985A9A72
:100D10005D9A5A985B98089597FF09C08F939F93A7
:100D20008DE246D59F918F91909581959F4F6CE173
:100D300071E04AE050E00E94E33E86C5EDDF01C06D
:100D4000EBDF80E235C58DE233C58DE331C50F930E
:100D5000082FE2EAF1E0880F880FE80FF11D6081AB
:100D6000718182819381643671058105910568F4F2
:100D70002091960127FD09C0802F17D6692FEFD14A
:100D80006EEF23E04DE132D704C04FEF04E02DE1D8
:100D900016D6D7DF0F910895863058F4EAE8F1E0CF
:100DA000E80FF11DE80FF11D8081918163E042D7CA
:100DB000C8CF08951F93182F80919B01882319F0A5
:100DC000C0DF80E0F5D48AD389E591E055D5812F45
:100DD00082958F70E1DF812F8F70DEDF1F91089584
:100DE00080917C0182958F7018D080917C018370F6
:100DF0001AD080917C01DECFEEE7F1E0E80FF11D23
:100E00000895CF93F9DF9081C681C91710F405D0FA
:100E100001C011D096DFCF910895EEDF8F938081CE
:100E200011D58F9100C08F9387E291E025D58F91E6
:100E3000E3DF868107C5E0DF8F93868103D58F913D
:100E400000C08F9383E291E017D58F91D5DF808129
:100E5000F9C403D002D001D000D000D003D002D01A
:100E600001D000D000D003D002D001D000D000D0FB
:100E7000A89503D002D001D000D000D003D002D07A
:100E800001D000D000D003D002D001D000D000D0DB
:100E900003D002D001D000D000D00000089582E03D
:100EA00090E0893C28F0885C48EC849FC0011124C4
:100EB000009709F4089540918100477019F0D8DF38
:100EC0000197F6CF8130910519F002975CE803C0D5
:100ED0005EE380E090E04091B200450F4093B300A4
:100EE00042E04093700047E043BF889546E043BF2F
:100EF00010927000A895DCCF8F9384E0D1DF06C0FC
:100F00008F93CDDF03C08F9381E0CADF8F911F9352
:100F1000182F106410937C00E12FE0788091170166
:100F2000E81759F0E0931701ADDF8FE980937A005D
:100F300083E083BF889582E083BF20E030E0A90191
:100F4000E0E01FC08FE980937A0083E083BF88953B
:100F500082E083BF6091780070917900260F371F7F
:100F6000411D511DE43061F480911901803041F040
:100F700084E02030380720F417FD02C01068CACF83
:100F8000EF5F80911601E817E8F260911A01709105
:100F90001B0117FF04C0609118017091190180E0D6
:100FA00090E00E94E03D2FEF33E040E050E00E94EF
:100FB000223EB901CA012091160130E040E050E024
:100FC0000E94223EC9011F9108959B01281B390BE5
:100FD00050F0C9010895BC0180911A0190911B0144
:100FE0006817790718F4861B970B089580E090E046
:100FF000089582E593E00E941E3F209158013091B0
:101000005901280F391F209356013093570183E06F
:10101000283E380720F0C901885E934002C080E076
:1010200090E062E370E00E94FB3D683008F067E00A
:10103000E9E5F3E0E60FF11DE60FF11D459155914D
:101040002591359162E3681B421B530B649FC001DD
:10105000659F900D1124499662E370E00E94FB3D6C
:10106000620F731F709351016093500184E593E008
:101070000E94163F992787FD9095609158017091C5
:101080005901860F971F909319018093180190932F
:1010900055018093540108950F9221E08C329207FC
:1010A00010F48CE291E08C52914069E170E00E9472
:1010B000FB3D99E16B3210F0982F6BE2981BEFEC3F
:1010C000F2E0E60FF11DE60FF11D9F93CF010E94A4
:1010D000163F482F3196CF010E94163F582F319668
:1010E000CF010E94163F282F3196CF010E94163F54
:1010F000382F6F91421B530B649FC001659F900D69
:1011000011240C9669E170E00E94FB3D620F731F91
:10111000CB010F900895CF93DF9324E130E0B90124
:101120000E94FB3DDC01EBE6F3E0E60FF71FE60F64
:10113000F71FC591D591459155914C1B5D0B4A9F69
:10114000C0014B9F900D5A9F900D1124B9010E9430
:10115000FB3D6C0F7D1FCB01DF91CF910895AEE178
:10116000B0E0E5EBF8E00C948B3E662EB82E860FCF
:10117000898320912701283059F520913801309139
:10118000390140913A0150913B0157FD15C0109132
:10119000470109C0CA01B9012AE0312D412D512D65
:1011A0000E94223E1F5F173FACF391F4243160E0B0
:1011B00036074105510518F48FEF9FEF41C1173FE6
:1011C00039F480E028178DE738074105410510F014
:1011D00020E03DE72C8B3D8B27EDA22EE6E4F3E0EB
:1011E000E60DF11D859180608E87E6E4F3E0EB0D5E
:1011F000F11D859180608F87E3E4F3E0E60DF11D3A
:101200007590E3E4F3E0EB0DF11DC59090EC692AD5
:10121000B92A81E0E82EF12C012D112D8E831F8239
:10122000188619861A861B861C861D86188E198EAE
:101230001B8E1A8E0E94372380E088B960927C0052
:1012400021DE3F8537B975B874B855E05A95F1F786
:10125000000014B815B8DD243E8537B975B874B8E8
:1012600060927C00A895A0927A0080917A0086FD19
:10127000FCCF2090780030907900B0927C004C2D0B
:10128000E3D02091780030917900288B398B3F850D
:1012900037B9C5B8C4B8A895B0927C00A0927A00BE
:1012A00080917A0086FDFCCF609178007091790082
:1012B00060927C00472DC8D0409178005091790011
:1012C00014B8CB01820D931DE80EF91E011D111DEE
:1012D000EA82FB820C831D8388899989840F951F7C
:1012E0002E813F8168857985280F391F611D711D09
:1012F0002E833F836887798722E32417150648F0F9
:1013000075B874B8C9DD14B815B8888D8395888F01
:1013100007C0483E73E0570718F08A8D83958A8F7F
:10132000888999892817190658F03E8537B9C5B8B4
:10133000C4B8B2DD14B815B8898D8395898F07C0FC
:10134000883E73E0970718F08B8D83958B8FD3942D
:101350005D2D5F3F49F05F3731F45C2D550FC50EB1
:10136000572D550F750E78CF40900F0150901001FA
:10137000440C551C9201E4E0240D351DEA95E1F77B
:101380002901570168016E807F80888499842091AB
:1013900027012830C1F46C897D89812D912D6550FC
:1013A0007040804090409B01AC010E94E03D9B0159
:1013B000AC0160E779E786E190E00E94223E621A84
:1013C000730A840A950AA614B704C804D90428F439
:1013D0006A187B088C089D0803C0662477244301A3
:1013E000B20180E090E09301A4010E94E03D9501EC
:1013F000A6010E94223E8AE293E07981870F911D27
:101400000E94163F682EC90160E170E00E94FB3D1A
:10141000260F371FC9016816190618F48619910995
:101420000FC08C5E9F4F8615910540F48C899D8975
:10143000843981E1980710F00E943413812D912D99
:101440006E96E2E10C94A73E10928100109280000B
:1014500010926F0010928B0010928A0057E056BBDA
:101460005FEF509385005093840055E050937B00CC
:1014700057EB50937A0051E0509381005FE45A9506
:10148000F1F70000000045B944B95BE05A95F1F767
:1014900014B815B81092810080917A0084FFFCCFB7
:1014A00080937A000895CF93C82F1C1614F0CF9123
:1014B000089547DCC150F9CF60930901809303017F
:1014C000869580930A01660F660F660F609302018E
:1014D000089510920A0160E080E0EECF81E08093F1
:1014E0000A0160E082E0E8CF82E080930A0160E0D8
:1014F00084E0E2CF83E080930A0160E086E0DCCF05
:10150000809109018093040180910A018093050173
:1015100008958091050160910401880FCDCF682F57
:1015200080E0BECB8EEAFBDF85EAF9CFCF93DF9375
:10153000C0E080E1F4DF80E0F2DF8C2F806BEFDF32
:10154000D4E860E081E0ACDBD150D111FACFCF5FBD
:10155000C83079F7BEDFDF91CF91089558985A9837
:101560005B985D98509A529A539A559A90DC5D9A7E
:10157000559A5998519A84E193DC589A84E190DC09
:101580008EEACDDF82EECBDF82EAC9DF80EAC7DFF9
:1015900080ECC5DF8FE2C3DF84E2C1DF81E8BFDF1B
:1015A00089E293E00E94163F8F73B9DF80E4B7DFD2
:1015B00084EAB5DF86EAB3DFB9DF8FEAB0DF60E047
:1015C00080E07ACF8091090190E1981B892F6BCF41
:1015D000CF93C82FF7DF90910A019F5F80E094308E
:1015E00010F093E081E090930A01809308016C2F42
:1015F000892F880F61DFCF910895EADFACC369DFDF
:10160000E1DF67CF6BDFDEDF69CF582F28E030E006
:1016100090E841E080E0652F64236111892B440F3D
:1016200096952150310921153105A9F70895A4E0B7
:10163000B0E0EDE1FBE00C948E3E6C014983A02EFE
:10164000B12CC501860F911D813891050CF042C067
:101650004E0D5527551FCA0141345105DCF55981FE
:101660005695569556955C83019733E095958795E9
:101670003A95E1F7E22FE2706E2EEE2369F0482FE3
:10168000451B550BFA01EA9DA001EB9D500DFA9DFB
:10169000500D1124C40ED51E8B83883010F047E006
:1016A0004B8380E8801B082F061B802F82958F704C
:1016B0008061898387E0582E0F700A832170722E13
:1016C0004C815B81541750F49091030187E0891B92
:1016D000806B25DF2496EFE00C94AA3E852D5C817B
:1016E000851B806B1CDF89811ADF8A8118DF7601F8
:1016F000EA0CFB1C87014601C016D10651F4662096
:1017000019F07601EA18FB083C813F5F3C836701D2
:10171000D7CF01501109F8017110F40184916110C3
:1017200001C073DF682F81E0BBDAFFEF8F1A9F0AD9
:10173000E3CFEF920F93382F8F7320E6829FC00183
:1017400011248F529C4F28E036FF28E4209301019A
:101750001092000137FD06C030E2309300012D5E8B
:101760002093010120E2E22E08E120E040910001F7
:10177000609101015CDF0F91EF900895EF920F935C
:10178000DC01262FFC01649131964491319604913D
:101790003196E49080910001480F80910101680F1B
:1017A000CD01049644DF0F91EF90089560E0E6CFFD
:1017B000EF920F93909109019F5F90930901282F59
:1017C00030E040910301440F440F440F6091020147
:1017D0008C30B0F4C90134E0880F991F3A95E1F7D5
:1017E00050E1E52E08E020E08751944F20DF809102
:1017F0000201885F80930201A8950F91EF900895F0
:101800002C5131095EE0529FC001539F900D11246D
:1018100020E1E22E07E020E08F58994F08DF609129
:101820000201695F6093020140910301440F440F7C
:10183000440F01E020E089EA96E0F9DE80910201A0
:101840008F5FD8CF8F5CB4CFCF93DF93EC018991BA
:10185000811103C0DF91CF910895AADFF8CFCF9314
:10186000DF93EC01FE018491882319F0A1DF21961A
:10187000F9CFDF91CF910895CF93DF93EC01CE01A3
:101880000E94163F882319F093DF2196F8CFDF914D
:10189000CF910895EF920F93FC0104913196E4905B
:1018A0000296C5DE0F91EF9008950F93CF93DF93CB
:1018B00000D000D0CDB7DEB780E891E0DDDF409109
:1018C00046014D3FCCF48091340190913501A091B7
:1018D0003601B091370189839A83AB83BC8303E0DF
:1018E00026E4BC01CD016BD00F900F900F900F90AC
:1018F000DF91CF910F9108958FE35ADFF5CF90914B
:1019000026019F70923071F478DE84E690E0B4DFB7
:10191000E0915A01F0915B0122E04DE16FEF84818B
:10192000958164C108950F931F93CF93DF93D82FB0
:10193000162F042F82E691E09FDFC0E0E0915A016C
:10194000F0915B0186858C1302C08D2F31DFE09111
:101950005A01F0915B0184858C1302C0812F28DF2E
:10196000E0915A01F0915B0185858C1302C0802FB4
:101970001FDFCF5FC33011F7DF91CF911F910F9120
:1019800008951F93CF93DF93C82FD62F142F80E095
:1019900034DED7D988E691E06FDF412F6D2F8C2F91
:1019A000C2DFDF91CF911F91089591E0882331F03C
:1019B000823009F090E0892F92E0089508954F92C7
:1019C0005F926F927F929F92AF92BF92CF92DF927F
:1019D000EF92FF920F931F93CF93DF93CDB7DEB7B4
:1019E00062970FB6F894DEBF0FBECDBF6B017C01CE
:1019F000A42EB22E202F2F70922E80E389838A830B
:101A00008B838C838D838E83F7FE3CC09CD96627A5
:101A10007727CB016C197D098E099F0933E0F8EE19
:101A2000CF2EF3E0DF2EE12CF12C931609F4C3C086
:101A300044E0E0E1CE2EE7E2DE2EE12CF12C94161C
:101A400009F4B9C055E0951609F4AEC026E040E4AB
:101A5000C42E42E4D42E4FE0E42EF12C921609F469
:101A6000AAC037E0A0E8CA2EA6E9DA2EA8E9EA2E35
:101A7000F12C931609F49FC034E6C32ED12CE12C2F
:101A8000F12C99C005FF02C08BE292DEC701B601BE
:101A9000C5CF9B01AC012B5F3F4F4F4F5F4F2F874F
:101AA000388B498B5A8BCA01B901A30192010E945C
:101AB000223ECA01B901A3946C157D058E059F05D0
:101AC00040F711E11A0D2BEA129F112D11241695E2
:101AD00036E03A19329F212D1124D22ED6942E7F32
:101AE0002D0DD32ED21A7E0137E0E30EF11C2AE031
:101AF000A7010E94C23EF70101900020E9F731974B
:101B0000AF014E195F097A01C42E84E08D0D90E07B
:101B1000841795071CF41F5F53E0D50E812F90E0CA
:101B2000845D9F4F0E94163FA82E0071002329F06C
:101B3000092D0E19C91408F000E0CE2CCD18C00EE6
:101B40001C1424F08EE234DE0D2D0E19D11002C0CB
:101B500088EFC82E912C10E0E00EF11E0C2C000C2A
:101B6000DD08E92DF0E0EE15FF055CF1AA2011F08B
:101B70008A2D1EDEBB2011F08B2D1ADE62960FB669
:101B8000F894DEBF0FBECDBFDF91CF911F910F91B3
:101B9000FF90EF90DF90CF90BF90AF909F907F909D
:101BA0006F905F904F90089550EAC52E56E8D52E5D
:101BB000EE24E394F12C2AE0422E512C612C712C5E
:101BC0007BCF3696E01BF10B81E090E08C0F9D1FE0
:101BD000E80FF91F8081ECDD9394892D90E08C153E
:101BE0009D0509F0BECF8EE2E3DDBBCFCF92DF9241
:101BF000EF92FF920F93CF93DF9300D000D0CDB739
:101C0000DEB7022F6C01E12CF12CC982DA82EB8263
:101C1000FC82242F462FC701B601D1DE0F900F9012
:101C20000F900F90DF91CF910F91FF90EF90DF9089
:101C3000CF9008950F93CF93DF9300D000D0CDB70E
:101C4000DEB7062F9C0140E050E029833A834B83A6
:101C50005C8326E54DEF69817A818B819C81AFDEC3
:101C60000F900F900F900F90DF91CF910F910895EB
:101C70000F93042F28E440E0A2DE8AE799DD61D8C3
:101C80000F910895E82FF0E0EE0FFF1FE257FD4F90
:101C90008591949120910001420F20910101620FE2
:101CA00020E0F8CDCF93DF93C82FD62FE0915A01D3
:101CB000F0915B0148E16EE18685E4DFE0915A0135
:101CC000F0915B014D2F6C2F8485DCDFE0915A0190
:101CD000F0915B0140E06EE18585D4DFDF91CF912B
:101CE0000895EF92FF920F931F93CF93DF937C01A0
:101CF000C5E64F9B19C0E70105E510E0D7FD1EC002
:101D0000CED8000F4F9B0F5F0F730F3399F4112341
:101D1000D9F01F5F183C90F4A8951C161D0684F797
:101D20002A97209759F0EACF81E0BAD8C150C11163
:101D3000E0CFE1CF0111F0CF112371F3812FCDB7A7
:101D4000DEB7E6E00C94B33EA895E70115E01E145B
:101D50001F0434F3D3CFCF93D3DBC82F8091080176
:101D6000882341F08130E1F4C33031F080E49FE119
:101D7000B8DFCFDBCF9108956FE086E09DDB8BE28B
:101D800017DD6FE086E098DB80E49FE1AADF8091B9
:101D90000801813071F760E086E08EDB13DCE9CF6B
:101DA00080E49FE19EDFC33021F7F1CF18951895AD
:101DB00040917D01A0915A01B0915B01EEE7F1E005
:101DC00020E030E0822F2417B0F451911C969C91B2
:101DD0001C97591719F05581951303C02F5F3F4F7A
:101DE000F1CF220F331FF901E657FE4F20813181D9
:101DF000293E334008F084E10895109227011092A3
:101E00007D0110927B0110926B01109226011092BD
:101E1000280110929B01ECE9F1E0108211821282FC
:101E2000E4E3F1E0108A82E0818B1092960117863C
:101E30001686148215821682178281EF838B08958D
:101E400071DB5E9809D880E090E04BCF1F93CF9371
:101E5000DF93162F17B818B8E82FF0E0ED5BFC4FB2
:101E6000249125B9962F981BE90FF11D97FDFA953E
:101E7000E4912E2B24B94BD8EC01812F48D8AC012A
:101E800020911A0130911B0136952795C9010397BE
:101E9000BE01625E7F4F8617970778F4255E3F4F3D
:101EA000C217D30750F4BA01625E7F4F86179707B7
:101EB00020F481E04217530708F080E014B8DF9166
:101EC000CF911F910895CF9361E080E0BFDFC82FCD
:101ED00062E080E0BBDFC80F62E081E0B7DF8C0F1B
:101EE000CF910895A2E1B0E0E8E7FFE00C948B3ECB
:101EF000B82E109227012FE02817B8F0E4DF8330C6
:101F000081F414DB81E692E0B7DCE8DA8FE350DCA1
:101F100080ED97E0E6DE8B30B0F408DB85EF90E0F3
:101F2000ABDC6296E2E10C94A73E00E010E0FEDA42
:101F300081ED91E0A1DCC7DF833009F065C01F5F50
:101F4000143009F062C0CADA0E943C2781EB90E0AD
:101F500093DC60E08CE293E00E94233F60E08DE23E
:101F600093E00E94233F60E08BE293E00E94233FD6
:101F700060E082E0F4D86C019A83898361E082E0BA
:101F8000EED87C019C838B8360E081E0E8D88C01F3
:101F90009E838D8323E040E26EEFC60127DE23E0BF
:101FA00040E26EEFC70122DE23E04DE16EEFC80193
:101FB0001DDE8AE5C816D10424F084E190E09A83FE
:101FC000898369818CE293E00E94233F9AE5E916B8
:101FD000F10424F084E190E09C838B836B818DE29B
:101FE00093E00E94233F0A35110524F084E190E03C
:101FF0009E838D836D818BE293E00E94233F82E07C
:1020000080930801A8DE08C010E088E20E94500713
:102010000F5F063909F08BCF1B2D1F70113009F0AF
:102020004FC0EE24E394F12CE2E0DE2EF3E08F2E9D
:10203000A8E0CA2EBCE09B2E00E2A02EB12C0E2DF3
:1020400050E3352E6AE0262EDDDAD9DA84E5B0DBFE
:10205000C7010E9497060E94A106013009F0D4C171
:1020600084EE90E009DC64E0809158019091590180
:10207000E1DD34DA8FED90E0FFDB8091500190914B
:1020800051010E9497068EEB8093160117B818B87D
:1020900014B815B888EE93E024DE043011F08B30CC
:1020A00020F4B394F4E0BF12CFCF88EE93E019DEB2
:1020B0002FEFE21AF20A88E0E816F10409F0BECF29
:1020C00008E701DF811198C231DA8AEA90E0D4DBB7
:1020D00023E04DE16FEF80910D0190910E0186DDBF
:1020E000FDD983EA90E0C8DB23E04DE16FEF8091FA
:1020F0000F01909110017ADD82E0809308012BDEC0
:102100001092270113DA8FE990E0B6DB60E082E0FD
:102110000E94142440903C0150903D0160903E018B
:1021200070903F015C864B8661E082E00E9414243F
:1021300080903C0190903D01A0903E01B0903F0105
:102140009E868D8660E081E00E941424C0903C0150
:10215000D0903D01DE82CD8262E080E00E941424B6
:1021600080913C0190913D019C838B8362E081E0F2
:102170000E94142480913C0190913D019A878987A7
:1021800061E080E00E941424E0903C01F0903D0169
:10219000FA82E982C2010E94A006C4010E94A00640
:1021A000C6010D2C000CAA0BBB0B8F87988BA98B3B
:1021B000BA8B03E026E444EFBC01CD0100DC113012
:1021C00009F025C292E0E90EF11CF886EF82DE01EB
:1021D00011967D015E01BFE0AB0EB11CF70181914C
:1021E00091910A97853B9105D0F4AE16BF06B9F7D9
:1021F0004BE4C42E43E0D42EF7016081F2E0EF0EF1
:10220000F11C6E5EC6010E94233F2FEFC21AD20A54
:10221000EA14FB0489F762D985EA91E02DDB82E0BC
:102220008093080198DD0E94AE35113029F080912D
:102230000C01823009F0D3C079D980E003DB8BE454
:1022400091E01ADB82E0FEDA84E290E015DB90E4B4
:10225000F92E10E02AE0822E912CA12CB12C37EF20
:10226000E32ECBDD1092270160E082E00E9414246F
:1022700000914601209134013091350140913601A1
:1022800050913701D02E87EFD8160CF4CAC18E2D8D
:10229000801B083F0CF080E0800F80934601209364
:1022A0003401309335014093360150933701873F15
:1022B00009F0BFC1DA01C90180569109A109B1092C
:1022C00080399545A105B10508F0B3C16091290198
:1022D00070912A01CB018B569F4F8B32914008F0B1
:1022E000A8C11F5F153009F0A5C182E593E00E94E7
:1022F000313F1CD98DE190E0BFDA809129019091A6
:102300002A010E948C060E94F90718B881E087B95B
:1023100080E284B982E00E948707853D9340D4F72C
:1023200014B8109219011092180182E00E948707D8
:102330008C018091540190915501909319018093E3
:10234000180182E00E9487077C01EE0CFF1C1092AE
:1023500019011092180182E00E9487074C01C09079
:102360005401D0905501D0921901C0921801B6D8ED
:1023700086E190E081DA84E593E00E94163FB82E72
:10238000D801A80DB91DAE19BF0996010E94753E6E
:1023900097010F2C000C440B550B0E94443E83E028
:1023A0008B0D182F120F612F84E593E00E94233FBD
:1023B000812F012E000C990B0E948C060E94F907B8
:1023C00082E080930801C7DC10920C018BE493E05B
:1023D0000E94163F682F8EE493E00E94233F80E81E
:1023E0008093160180E00E94F338A0D885EF90E03A
:1023F00043DA74D888E492E03FDA1092270182E051
:1024000080930801A8DC8DCD0230B1F520911A012E
:1024100030911B01A8E5BBE10E94663E24EC36E347
:1024200040E050E00E94443E29013A0181E085B934
:10243000A5E0A4B980E00E947C079C01241935091D
:102440003A83298381E184B980E00E947C079C0162
:10245000241935093C832B8384E085B984E184B950
:1024600081E00E947C079C01241935093E832D835D
:1024700089EC90E001DA35C0033059F5D5B824B8BD
:1024800080E00E947C0720911A0130911B01369553
:10249000279538872F83821B930B9A838983B2E217
:1024A000B4B980E00E947C072F813885821B930B92
:1024B0009C838B83C5B8E8E2E4B981E00E947C0785
:1024C0002F813885821B930B9E838D838BEB90E04D
:1024D000D1CF0430C9F481E592E0CED9F4DC81118A
:1024E00088C00E946E0A89819A810E948C060E948F
:1024F000A1068B819C810E948C060E94A1068D8181
:102500009E810E948C06C2CD0530B1F415B8D4B8B6
:1025100080E00E947C079A838983C4B881E00E948E
:102520007C079C838B83A4B882E00E947C079E83F7
:102530008D838BED90E09ECF063051F5D4B8D5B8A1
:1025400080E00E947C0720911A0130911B01821BC0
:10255000930B9A838983C4B8C5B881E00E947C0735
:1025600020911A0130911B01821B930B9C838B835A
:10257000A4B8A5B882E00E947C0720911A0130918E
:102580001B01821B930B9E838D8387ED90E072CF9E
:1025900020911A0130911B01A8E5BBE10E94663E23
:1025A00028EB32ED47E450E00E94223E29013A0137
:1025B000D5B884B880E00E947C079C0124193509B5
:1025C0003A832983C5B894B881E00E947C079C01B6
:1025D000241935093C832B83A5B834B882E00E94C6
:1025E0007C079C01241935093E832D8385EB90E0FF
:1025F00041CF82E0B82E75CF05D881E592E03CD975
:1026000084E60E945007015001115BCD5DCD8091A1
:102610000C01823009F4D6CDF886EF8210920C01BD
:10262000D6CDCA01B901A50194010E94223ED394DE
:102630002ACE10E00E946E0A8091340190913501FB
:10264000A0913601B091370104E026E440914601A3
:10265000BC01CD01B4D90E94E20A88E20E94500771
:10266000FA94F110FECDBBCE80910C0181110DC00A
:102670008BE493E00E94163F61E0680F8EE493E0E4
:102680000E94233F81E080930C010895A5E0B0E013
:10269000ECE4F3E10C94973E6D83E82FF0E0EA5B05
:1026A000FC4FE491E8B9E7B915B88D81E82FF0E067
:1026B000ED5BFC4FE491E4B9EE0FE98308E813E128
:1026C00078018D810E947C078C01898184B90E1567
:1026D0001F05B0F301151105D9F00E947A0A8BE2AB
:1026E00091E0CAD8D80120EA36E841E050E00E94E3
:1026F0007B3E28E937EB40E050E00E94223EDA01C1
:10270000C90122E041E467EF71DA17B818B814B8CC
:102710002596E6E00C94B33E00D000D00F92CDB7E2
:10272000DEB780E48AB98BB987E880937A0010928B
:10273000C1000E942E0724B72870298384B7877FA1
:1027400084BF0FB6F894A89580916000886180934B
:102750006000109260000FBE86E88093640088E3FA
:1027600080937E001092B00087E08093B10078944F
:102770000E94AE0A8981811178C580E185BF1982E6
:102780004F990AC00E944F0799819F5F99839C339C
:10279000B9F780E69DE605C0A9818FE59DE6AF31DA
:1027A000C0F79093070180930601109217010E94D1
:1027B0003C2788E19FE00FB6F894A89580936000CD
:1027C0000FBE90936000B981BC3309F45FC08CE503
:1027D000C82E81E0D82E9CE6E92E91E0F92E13E375
:1027E00021E2B22E32E1A32E40E2942E8FEA0E9423
:1027F0008F0A84EA0E948F0A0E94960A17B8FDDAAF
:102800000E943C270E94690A43D5809128018823B1
:1028100071F00E946E0A80E491E02ED863E080910E
:102820001A0190911B0106DA88EC0E9450070E9461
:102830006E0A0E94372380912701893061F50E943A
:10284000960A85E491E018D80E946E0A63E08091B0
:102850002E0190912F01EED90E94A10663E0809194
:10286000300190913101E6D90E94A10663E0809188
:10287000320190913301DED98AEC0E94500781E148
:1028800031DB8091060190910701B1C10E943B317B
:102890008111FCCF9CCF8EE493E00E94163F898388
:1028A0008BE493E00E94163F2981281B20930C01A2
:1028B00080E018DB0E94020B86EC92E00E943C0C48
:1028C00042E061E080E073D542E060E081E06FD5F6
:1028D00041E062E080E06BD541E060E082E067D5F6
:1028E00040E062E081E063D540E061E082E05FD5F6
:1028F0008091270181110EC00E94372360E082E0A1
:102900000E94142461E082E00E94142460E081E0CF
:102910000E94142480912701882331F0883031F4FB
:1029200080914701843F11F40E94133A0E94960A55
:10293000D0925B01C0925A01E0912701E630E9F4A0
:1029400085EC0E94990B60E188EFACD966E080E0ED
:102950000E945C0A8DE992E00E943C0C66E082E0F5
:102960000E945C0A89E591E00E943C0C62E0809143
:102970006001909161015ED984CFE350EA3008F0A4
:1029800095C0F0E0EA5BF04C0C94603E84EC0E9451
:10299000990B60E188EF86D966E080E00E945C0ACE
:1029A00086EA92E0D9CF8091440190914501890F48
:1029B0009927991F029789F40E94CB2980910C01D5
:1029C000882349F00E94960A89E493E00E942F0C24
:1029D00080E197E286D934DA09CF80E00E94F628B8
:1029E00050CF88EB91E00E943C0C0E941A3B811171
:1029F000FDCE47CF8EEA91E0F6CF80917D01813008
:102A000009F06DC080E00E94010760917E01809115
:102A100084013CDE80E70E94DA0640E060917E019E
:102A2000809184010E94B334609334017093350126
:102A3000809336019093370180E00E94FD0A8091D7
:102A4000340190913501A0913601B091370189830D
:102A50009A83AB83BC8302E026E442EFBC01CD0144
:102A60000E94DF0C0E94A30641E060917E018091EC
:102A700084010E94B33460933401709335018093D4
:102A800036019093370126E442EF0E94DF0C8DE17E
:102A900091E00E943C0C80919B01882309F4F1CEC7
:102AA00080E187B917B880E00E94FD0A30919B0150
:102AB000332309F4CAC380919F01313009F05BC30D
:102AC0000E94D50C692F90919F01913009F04FC35E
:102AD00090917D0191114BC30E9486296FCF823066
:102AE00071F582E30E94D80B8DE091E00E943C0CCE
:102AF00090917E0130917F01931308C080E00E9485
:102B00001B0781E00E94130781E085CF209184019B
:102B100080918501281307C080E00E940D0781E0A5
:102B20000E942107F1CF321306C081E080937C011F
:102B30000E94F006B0CF98133BC080E1F7CF8330FE
:102B4000B9F510937C018091840190917F018913E4
:102B500003C021E020937C0140917E0130918501EA
:102B6000431303C0A0E1A0937C0120918001821354
:102B700003C082E080937C0180918601481302C0EB
:102B800090927C0132130EC0A0927C01981302C077
:102B9000B0927C0183E30E94D80B8DE091E00E940B
:102BA0003C0CC6CF9817A1F380917C01823290F340
:102BB0008CEA92E00E943C0C84E992E00E943C0C7A
:102BC0000E946E0A80917D01805D0E94D80B8AE28E
:102BD0000E94D80B87E291E00E943C0C8AE792E0C9
:102BE0000E943C0C86E00E94990B80E49FE120E16A
:102BF00027B94F9BFECF75D8823308F433C30E94A8
:102C00003B318111FCCFF2CD80917B01882309F407
:102C100056C080916B01882309F451C0609168010E
:102C200080916A010E941424409034015090350133
:102C30006090360170903701B0914601B983609180
:102C40007A01809178010E94142480915C01909116
:102C50005D01A0915E01B0915F01843F9140A105AB
:102C6000B10508F400C180916C0190916D01A091B3
:102C70006E01B0916F01843F9140A105B10508F448
:102C800003C1809146019981891302C18091340169
:102C900090913501A0913601B0913701481659063F
:102CA0006A067B0608F0F8C08DE0809326019091BB
:102CB0007B01992321F090916B019111EFC066E0A7
:102CC00080E00E945C0A80EC0E94990B80912601B2
:102CD0008C3009F0EAC085E791E00E943C0C8091BD
:102CE0007B01882319F080E70E94D80B61D88D837F
:102CF0008530A0F4A0915A01B0915B01E82FF0E07B
:102D0000E258FE4F61E01D969C918081981301C0AE
:102D100060E0660F84E992E00E94BE0B60E189EFFB
:102D20000E94520E86E00E94E80A84E891E00E9428
:102D30003C0CE0915A01F0915B0180819181A2816C
:102D4000B38189839A83AB83BC8303E020E04EEF99
:102D5000BC01CD010E94DF0C87E00E94E80A89E4F3
:102D60000E94D80BE0915A01F0915B018681978116
:102D70008031974208F4ACC085E60E94D80BE09100
:102D80005A01F0915B018681978180519742978328
:102D900086830E94A506E0915A01F0915B0122E032
:102DA00041E46AEF868197810E94F60D86E00E94D9
:102DB000E80A8DE591E00E943C0CE0915A01F09107
:102DC0005B0163E0848195810E941A0E81E080930B
:102DD0000801E0915A01F0915B0180859185892B72
:102DE00091F085E00E94FD0A8FEE90E00E943C0C7D
:102DF000E0915A01F0915B0122E041E46AEF8085A5
:102E000091850E94F60DE0915A01F0915B01828557
:102E10009385892B91F085E00E94FD0A89EE90E070
:102E20000E943C0CE0915A01F0915B0122E041E4E8
:102E30006AEF828593850E94F60DBD81B53068F4F6
:102E400080E00E94FD0A8D810E94010789E591E0E2
:102E50000E943C0C8D810E94CC0643E462E485E430
:102E60000E94C10C0ECD80916C0190916D01A091DA
:102E70006E01B0916F01843F9140A105B10508F446
:102E800000CF80EF8983FDCE80EF80934601F9CE9D
:102E9000A981A8170CF408CF8CE007CF4F990FCF6A
:102EA00091E08927809326010ACFF0925B01E0929E
:102EB0005A0189EC92E00E94D60B8DE691E00E94C7
:102EC0003C0C80916B01882309F410CF8EE60CCF67
:102ED00083E60E94D80B5DCF66E080E00E945C0A2A
:102EE0002091260120712983222309F468C080E5FE
:102EF0000E94D80BF0925B01E0925A0182E0898334
:102F00000E94A30680912601082F0F70043009F05B
:102F10005AC08FE891E00E943C0C83EC0E94990B10
:102F20009981992321F082ED92E00E94D60B0E94B4
:102F3000D80E8530A0F4A0915A01B0915B01E82F22
:102F4000F0E0E258FE4F61E01D969C91808198135D
:102F500001C060E0660F84E992E00E94BE0B60E170
:102F600089EF0E94520E86E00E94E80A80912601B5
:102F700085FD74C085E591E00E943C0CE0915A010A
:102F8000F0915B0162E0828593850E941A0EE091C8
:102F90005A01F0915B01668584850E94142486E0C5
:102FA0000E94E80A0E94550C85E00E947F0C4FE3C6
:102FB00067E48FE3043009F453CF1982CAC08EE46A
:102FC0000E94D80B9DCF85FF15C084E40E94D80BCA
:102FD000A981AF5FA983033089F589E891E00E9458
:102FE0003C0C81EC0E94990B8981813021F58FE1A5
:102FF00093E09BCF85E40E94D80B033071F489E8FD
:1030000091E00E943C0C81EC0E94990BB981B23096
:1030100009F08DCF8BE293E088CF84E991E00E94A4
:103020003C0C82EC0E94990B2981223009F07FCF61
:1030300081EF92E07ACF8BEF92E077CF84E991E055
:103040000E943C0C82EC0E94990B9981913019F4FA
:103050008BEE92E06ACF89ED92E067CFE0915A0162
:10306000F0915B018F70843009F44EC066858485D1
:103070000E9414240E94550C60E084E00E945C0AC7
:1030800089E40E94D80B0E94A506E0915A01F091B4
:103090005B0122E041E46AEF868197810E94F60D90
:1030A0008FE491E00E943C0CE0915A01F0915B01A9
:1030B00062E0828593850E941A0EE0915A01F09198
:1030C0005B0180859185803C9241E0F480E00E9424
:1030D000FD0A89E40E94D80B0E94A50622E041E483
:1030E0006BEF80E090E00E94F60D8FE491E00E948B
:1030F0003C0CE0915A01F0915B0162E08085918582
:103100000E941A0E80E051CF84819581892B09F4A9
:10311000B3CF80E090E00E943C0CE0915A01F09126
:103120005B0122E041E46AEF848195810E94F60D03
:10313000A3CF80E00E94FD0A89810E94010789E5F2
:1031400091E00E943C0C89810E94CC06B981BF5F4E
:10315000B98380917D012981281758F344E467E4FD
:1031600083E5033009F07CCE43E467E478CE40E0A9
:103170000E94112886CB9091A00124E0929FD0015B
:103180001124AE55BE4F24E0829FF0011124EE556C
:10319000FE4F4D905D906D907C9040815181628199
:1031A0007381282F441555056605770508F4292FE6
:1031B000323061F5980F83E0891B8983898086947A
:1031C00002E0702EA9817A1A01E0A11102E0882D97
:1031D0000E94220C88E091E00E943C0C872D0E9406
:1031E000220C88E091E00E943C0C802F0E94220C6F
:1031F00080E00E94E80A81E0B981B11180E00E947C
:10320000A70682E088190E94A7063BCB9091A101F6
:10321000998384E0989FD0011124AE55BE4F94E06D
:10322000299FF0011124EE55FE4F4D915D916D9156
:103230007C9180819181A281B38184179507A60733
:10324000B70708F4BBCF2983B9CF84E892E00E9486
:103250003C0C0E946E0A81EB92E00E943C0C8CEACE
:1032600092E0BECC8111C2CAA9CB0E94690A81E753
:1032700092E00E943C0C8BEC0E9450070E94200FB1
:1032800080E090E00F900F900F900F900F900895B6
:10329000CF92DF92EF92FF92CF93DF9300D000D0D6
:1032A00000D0CDB7DEB785E00E94870785E00E9499
:1032B00083078D839E832D813E81A8ECB0E00E9420
:1032C000663E69837A838B839C8324E630E040E00A
:1032D00050E00E94223E69017A0110920B01C9015F
:1032E0008458934081319E40B0F089E991E00E947A
:1032F0003C0C0E94E20A81E080930B010F900F903A
:103300000F900F900F900F90DF91CF91FF90EF9063
:10331000DF90CF90089588EA91E00E943C0C62E033
:10332000C6010E941A0E0E94A1068D819E818C3DCD
:1033300025E09207B0F48837954060F48AEB92E07C
:103340000E943C0C0E94E20A8DEC0E9450070E94F1
:10335000200FD4CF81EC92E00E943C0C0E94E20A44
:10336000CDCF85EA91E0F8CFFC019C01261B370BFD
:10337000CA0170E060E0A901460F511D452F552795
:10338000620F240F351FAC01470F511D452F5527E4
:10339000780FDA01AA0FBB1F8A0F9B1F4B3E20F448
:1033A000E217F30740F7089580E090E00895AFE159
:1033B000B0E0EDEDF9E10C948B3E8D836E834F838D
:1033C000A8952E81E22FF0E0ED5BFC4F34913E8713
:1033D000330F3D8F33962490E42FF0E0ED5BFC4FEC
:1033E000049133965490E82FF0E0ED5BFC4F14917C
:1033F000412F440F4D8B339654915F8F05B98E85C5
:10340000802B8A8B84B957B958B98E810E94830763
:103410006C019E8594B98E810E9483075C0114B86B
:103420000E94370715B82A8924B98E810E94830724
:10343000B6010E94E5077C0127B818B8302E312A62
:1034400035B834B88D810E9483070E94EB073C0198
:1034500015B80E94370715B98D810E9483070E9415
:10346000EB078B8B9C8B14B98D810E9483070E9484
:10347000EB074C016B897C89C3010E94E5079C0125
:103480008032914030F450E2E51651E0F50608F440
:1034900023C18B899C89E80EF91E2C0D3D1DE21677
:1034A000F30618F0DC8ACB8A450120916B018091EC
:1034B0007B01820F9927991F02974CF0213009F068
:1034C0000AC19091680180917801981304C1B02ECF
:1034D000BB0C9B2D912B9E8FAE84AB282B893C89F6
:1034E0002437310508F472C2C9010A96880F991F62
:1034F0008816990608F06AC23F8D37B938B9A4B862
:103500008E810E9480077C018F810E9487076C0159
:10351000B5B88E810E9480079701295A3D4F18B88F
:1035200027B82817390708F0C1C04E8D44B945B9EE
:103530008F810E94800788349F4008F079C084E220
:1035400095E09093270180932601F0926101E0922B
:103550006001B601C7010E94F00790936701809354
:1035600066019701A0E1B7E20E94663E69837A8313
:103570008B839C83209111013091120140E050E037
:103580000E94223E30936301209362018D8D8B292E
:1035900084B915B88F8D87B988B98F810E94870744
:1035A000F82E092F8E810E9480076F2D702F0E94A8
:1035B000F0078093640190936501209126012F709C
:1035C0002430C1F118B8822C852887B814B935B8D1
:1035D0008D810E948307F82E99830E94EB078C014E
:1035E0008E810E948707BC01C0901301D090140106
:1035F0008F2D99810E94F0079601DC010E94663EA2
:10360000980140E050E00E94223E309361012093F7
:10361000600180916B018E5F80936B019F8190931D
:1036200068012D81209369013E8130936A0112C1A6
:1036300082E286CF40916201509163016091660100
:103640007091670191DE9C01892B29F1B4B89F8D9F
:10365000922997B98E810E948007082F988717B802
:10366000282F3885A0E1B7E20E94663E69837A83FD
:103670008B839C8320910F013091100140E050E03A
:103680000E94223EA901602F78858091640190916B
:1036900065016ADE9C013093610120936001809195
:1036A00026018F70843009F4B4CF8CCF2E8D24B9CD
:1036B00025B98D810E9480077C018F810E94870738
:1036C0006C0115B98D810E948007895A9D4F8E1516
:1036D0009F0508F4CAC0540114B815B817B837ECE0
:1036E000A31631E0B30608F467C518B84D8944B98C
:1036F00058ECF52EEF8CE228E7B881E00E945007E5
:1037000027B88D810E948707429718F0FA94F1102C
:10371000F3CF5D8954B955B961E0802F91D78D8180
:103720000E9483074C018D8D84B915B89F8D97B980
:1037300098B960E0802F84D78E810E9483070E9411
:10374000EB077C012E8524B98E810E9487076C01CE
:103750008D810E948307B6010E94F0076C018E8163
:103760000E9487075C018D810E948307B5010E943A
:10377000F00796012C5E3F4F2817390708F46AC0FE
:1037800018B827B814B915B961E0802F59D78E81C0
:103790000E948707B82E192F8D810E9483076B2DF9
:1037A000712F0E94F0075C01C816D90608F00BC5FE
:1037B0003D8934B935B98D810E9483079C0174011C
:1037C000E8ECF0E088E4E81686E0F80630F4F7016B
:1037D00043E0F695E7954A95E1F798EEA91693E050
:1037E000B90608F001C5C50164E670E00E94FB3D22
:1037F000C501875991098938914108F0DDC42A151E
:103800003B0508F0D9C4C7018E0F9F1F8A159B0581
:1038100008F0D2C46E157F0508F0CEC48091270150
:10382000833018F483E08093270120917D01822F5B
:1038300090E0FC01E258FE4F5D8150833E8136836B
:10384000FC01EE0FFF1FE657FE4FB182A0822F5FF3
:1038500020937D0117B818B814B815B88EE20E94ED
:10386000D80B6F96E2E10C94A73E3F8D38B937B97B
:103870008F810E948007813D934008F468C084E3F3
:1038800095E09093270180932601B701C6010E941D
:10389000F0079093770180937601C7010E94EB07B0
:1038A0009C01A0E1B7E20E94663E69837A838B8324
:1038B0009C83209113013091140140E050E00E945C
:1038C000223E309373012093720118B827B88D8976
:1038D0008B2984B985B98D810E9487078C018F81DE
:1038E0000E948007B8010E94F007809374019093B2
:1038F0007501209126012F70243059F18F8C852875
:1039000088B887B815B834B88D810E948307F82E1F
:1039100099838E810E9487078C01C0901101D090FD
:103920001201BC018F2D99810E94F0079601DC01E4
:103930000E94663E980140E050E00E94223E309393
:1039400071012093700180917B018E5F2FC182E312
:1039500097CF4091720150917301609176017091FF
:10396000770102DD9C01892B31F1B5B8B4B85F8DC8
:1039700058B9252A27B88D810E9480070E94EB073D
:103980008C0117B89C01A0E1B7E20E94663E6983F2
:103990007A838B839C8320910D0130910E0140E04E
:1039A00050E00E94223EA901B801809174019091DB
:1039B0007501DADC9C0130937101209370018091D4
:1039C00026018F70843009F4BECF98CF18B827B87D
:1039D00015B98E8D84B98D810E948307898F9A8F46
:1039E0000E94EB0789839A838F810E9487078887CB
:1039F000998794012C593F4F3C8F2B8F49815A81D5
:103A0000B4012417350708F0DDC0CA010E94F00791
:103A10007C01209113013091140140E050E060E8F6
:103A200071EA83E09CE10E94223ED7010E947B3E26
:103A30006A877B878C879D87888599859C0140E074
:103A400050E06A857B858C859D850E94223E2901F8
:103A50003A0114B815B89F8D98B997B981E00E94C2
:103A600050072A8924B98E810E9483078F359D4093
:103A700008F46DC1A4B88E810E9480076C018F810B
:103A80000E9487077C018D810E9487078A879B8718
:103A900041EDE41647E0F40608F4E2C084E08093C8
:103AA00027018DE08093260186018C149D0410F47B
:103AB0000819190980911101909112019C0140E0AF
:103AC00050E02D8B3E8B4F8B588F60E871EA83E07E
:103AD0009CE10E94223ED8010E947B3E970140E07B
:103AE00050E00E94223E60917B01662309F489C068
:103AF00080916C0190916D01A0916E01B0916F0168
:103B000082179307A407B50708F47BC084159505B1
:103B1000A605B70508F06FC340926C0150926D0185
:103B200060926E0170926F0168857985898D9A8D9A
:103B30000E94F007909371018093700129813A816E
:103B4000A0E1B7E20E94663E20911301309114017A
:103B500040E050E00E94223E205F384D30937301D8
:103B600020937201C0901101D0901201E12CF12C30
:103B70009401A0E1B7E20E94663EA70196010E946F
:103B8000223E30937501209374012B893C89A0E17A
:103B9000B7E20E94663EA70196010E94223E309342
:103BA00077012093760180917B018F5F80937B0169
:103BB0004F81409378015E81509379018D8180938C
:103BC0007A0148CE89819A810E94F0077C0134B83D
:103BD0008D810E948307898F9A8F0E94EB078983CA
:103BE0009A838F810E94870788879987688579855E
:103BF000C7010E94F0079C01A4E6B0E00E94663E67
:103C000017CF20936C0130936D0140936E01509358
:103C10006F019601A0E1B7E20E94663E2D893E89C0
:103C20004F89588D0E94223E309373012093720178
:103C3000B7018A859B850E94F0079093710180935C
:103C4000700180916C0190916D01A0916E01B09115
:103C50006F0184159505A605B70508F083CF5CCFE5
:103C600031E68316910408F072C041EDC41647E0B6
:103C7000D40608F46CC085E08093270182E180932C
:103C80002601C60186509F4F2A853B8582179307E0
:103C900008F042C083E180932601122D17708F81B6
:103CA000806480937C003BE03983CC24C394D12C86
:103CB000EE24EA94A3E0FA2EA89561E0802FC0D408
:103CC000A4B886B181238823E1F34E8544B980915D
:103CD0007A00806480937A0080917A0086FDFCCF20
:103CE00080917800909179009701281B390BC20EC2
:103CF000D31E3981315039833111DECFC601880F8F
:103D0000991F880F991F69E070E00E94FB3D709336
:103D100077016093760117CE809011019090120187
:103D2000B6018A859B850E94F0079401DC010E9400
:103D3000663E69837A838B839C83960140E050E0E2
:103D40000E94223E3093710120937001A6CFA4B847
:103D5000B5B88E810E9483076C018F810E9487070E
:103D60008A87998F0E94EB077C014B8D5C8D4C15E7
:103D70005D0508F0AAC0B401C6010E94F0075C010D
:103D8000209111013091120140E050E060E871EAA9
:103D900083E09CE10E94223ED5010E947B3E698324
:103DA0007A838B839C83970140E050E00E94223EFF
:103DB00029013A0127B818B834B835B88D810E9466
:103DC00083075C018F810E9487078A8F9B8F8E817A
:103DD0000E94870788879A8B80E3A81681E1B8063E
:103DE00008F0EEC115B98D810E9483077C0114B9DA
:103DF0008D810E94830789839A8315B881E00E9490
:103E0000500715B98D810E9483079C0149815A8111
:103E10004034564008F077C02133314108F473C074
:103E2000C5018A569F4FE816F90608F06CC086E077
:103E30008093270180916B018F5F80936B01688570
:103E40007A898A8D9B8D0E94F007909361018093FF
:103E5000600168857A89C5010E94F0079093670127
:103E60008093660114B815B828B881E00E94500705
:103E700014B98D810E948307853F910510F534B8F0
:103E80008F810E948307813D9340D8F08D810E94ED
:103E900087078D3D9240A8F014B98D810E94830759
:103EA0008D3D924070F015B981E00E94500715B821
:103EB0008D810E948307853F910518F487E08093E8
:103EC000270180916B018F5FA7CB5A8954B905B93F
:103ED0008E810E9483076C018F810E9487078A87E9
:103EE000998F0E94EB077C01C6018C149D0410F48D
:103EF00088199909B7010E94F0079C01A4E6B0E077
:103F00000E94663E4CCF27B804B905B981E00E94F3
:103F100050075E8D54B955B98D810E9483078983FE
:103F20009A8389819A810E94EB077C018F810E948C
:103F300087078A8B392E0E94EB07888799878E81A5
:103F40000E9487075C01888599858E3F994008F417
:103F5000BCC084E0809327018CE080932601B401EB
:103F6000C7010E94F0078C012091130130911401C8
:103F700040E050E060E871EA83E09CE10E94223E6C
:103F8000D8010E947B3E69837A838B839C838885DA
:103F900099859C0140E050E069817A818B819C8108
:103FA0000E94223E60916B01662371F080915C015A
:103FB00090915D01A0915E01B0915F01821793071E
:103FC000A407B50708F077C020935C0130935D012A
:103FD00040935E0150935F01B5018A89932D0E9441
:103FE000F00790936101809360019701A0E1B7E22F
:103FF0000E94663E209113013091140140E050E090
:104000000E94223E309363012093620180915C0103
:1040100090915D01A0915E01B0915F0184159505BD
:10402000A605B70520F540925C0150925D016092B3
:104030005E0170925F01B6018A85998D0E94F0073A
:1040400090936101809360019601A0E1B7E20E9424
:10405000663E209111013091120140E050E00E9433
:10406000223E205F384D309363012093620194011A
:10407000A0E1B7E20E94663E209111013091120149
:1040800040E050E00E94223E30936501209364019D
:104090002B893C89A0E1B7E20E94663E2091130182
:1040A0003091140140E050E00E94223E30936701BD
:1040B0002093660106CF84159505A605B70508F47B
:1040C000B2CF6F5F60936B01C5CB91E68916910407
:1040D00008F076C029E4E2162DE0F20608F467C085
:1040E00085E08093270182E080932601C5018650F8
:1040F0009F4F49815A818417950708F03DC083E09E
:10410000809326015F8D5770D52E8F8180648093B8
:104110007C008BE08983EE24E394F12CA89560E089
:10412000802F8ED29E8D94B995B986B18D21811143
:10413000FCCF14B980917A00806480937A008091DA
:104140007A0086FDFCCF8091780090917900E80E8E
:10415000F91E2981215029832111E0CFC701880F41
:10416000991F880F991F69E070E00E94FB3D7093D2
:104170006701609366014DCAC0901301D09014018D
:10418000B50189819A810E94F0079601DC010E94A5
:10419000663E69837A838B839C83970140E050E07D
:1041A0000E94223E3093610120936001ABCF17B88B
:1041B00018B814B815B817B86E818D8120D04ACBC5
:1041C00017B818B888CA4D8D44B915B85F8D57B95E
:1041D00058B960E0802F34D28E810E9483070E94FC
:1041E000EB079C015601ECCAB50194E07695679502
:1041F0009A95E1F7FDCA6F5F60937B012BCBA6E038
:10420000B0E0E5E0F1E20C948D3E8D836E83A895DD
:10421000EE808E2D90E0FC01ED5BFC4FB490339668
:104220002491FD804F2D50E0FA01ED5BFC4FF4909E
:104230003396E49060917B0130916B01630F772797
:10424000771F672B09F064C0A895609152017091A7
:104250005301660F771F660F771F70931B016093E2
:104260001A016091540170915501660F771F660F16
:10427000771F70931901609318013EEB309316017C
:1042800030917D016EE771E0DB01480F591F8A2FE5
:10429000861B831700F118B827B9F4B8F5B8812C3C
:1042A000912CDD24D3948E810E9483072C018401FC
:1042B0008D810E9487074C01801B910B97FF03C0E3
:1042C00091958195910903973CF1A895D39409E1C3
:1042D000D012E9CF0AC09D9115968C911597890F40
:1042E0009927991F8417950791F680915201909113
:1042F000530190931B0180931A0180915401909176
:104300005501909319018093180180E8809316015C
:104310002696E0E10C94A93EFF0C15B8F4B88D8107
:104320000E9483078135910500F7F5B88D810E94C1
:1043300083078C01E7B8E8B815B8B4B8E12CF12CC4
:10434000AA24A3948D810E9483073C0167018E817A
:104350000E9487077C018C199D0997FF03C09195E6
:1043600081959109039734F0A895A39429E1A212AD
:10437000E9CFBBCFBB0CB4B88E810E9483075C0130
:1043800030EC831634E4930608F0AAC0053841E007
:10439000140708F0AACF84EAE81682E0F80608F0CD
:1043A000C3C098E9A916B10408F49FCFC8010E94C0
:1043B000EB07AC019801A8E9B7EB0E94663E9A01B1
:1043C00040E050E00E94223E69017A01C5010E944E
:1043D000EB079C01A8E9B7EB0E94663E950140E01F
:1043E00050E00E94223E0837AFE01A0708F07CC078
:1043F000F2E0CC0CDD1CEE1CFF1CFA95D1F7D701C6
:10440000C601820F931FA41FB51FBC01CD0125E07B
:1044100030E040E050E00E94223EA4E6B0E00E947E
:104420007B3E69837A838B839C836B017C011CEACE
:10443000C10E1DE0D11EE11CF11C109127011430AA
:1044400008F053CF0D8101502E81020F0D83802F74
:1044500090E0FC01E456FE4F2081880F991F880FE1
:10446000991F8E559E4FDC01222309F4E1C08D90E7
:104470009D90AD90BC90A7019601281939094A0971
:104480005B0957FF07C050954095309521953F4FE8
:104490004F4F5F4FAAE0B0E00E947B3EB4E68B0E28
:1044A000911CA11CB11C8C0C9D1CAE1CBF1C681562
:1044B00079058A059B0508F018CF133019F081E0C3
:1044C0008093270182E0808380919B01E82FF0E0B8
:1044D000E156FE4FED80E0828F5F80939B0105CF18
:1044E0000F3A5DE4150755CF98E7A9169FE0B90686
:1044F00090F4DA01C901E2E0880F991FAA1FBB1FDF
:10450000EA95D1F78C019D010C0D1D1D2E1D3F1D3F
:10451000C901B8017CCF2C0D3D1D4E1D5F1D569568
:1045200047953795279579CF009113011091140184
:10453000B2018414950408F4B401C4010E94F00788
:104540009801DC010E94663E69837A838B839C8399
:10455000C4010E94EB079C0140E050E069817A8130
:104560008B819C810E94223E59016A0100911101B8
:1045700010911201C3016E147F0408F4C701B70142
:104580000E94F0079801DC010E94663E69837A83ED
:104590008B839C83970140E050E00E94223E88E795
:1045A00088168FE09806F0F4D601C50162E0880F06
:1045B000991FAA1FBB1F6A95D1F77C018D01E20EDE
:1045C000F31E041F151FE982FA820B831C83C801A6
:1045D000B70125E030E040E050E00E94223E690152
:1045E0007A012BCF08E7E0160FE0F006B0F4DA010D
:1045F000C90152E0880F991FAA1FBB1F5A95D1F716
:104600009C01AD012A0D3B1D4C1D5D1D29833A8384
:104610004B835C83CA01B901DCCF76016501C20E10
:10462000D31EE41EF51EF694E794D794C79405CFE5
:10463000CD92DD92ED92FC92139781E0808355CE6E
:10464000CF93C82FC09595B160FF0FC0982B95B937
:1046500094B1892B84B90E944F0784B18C2384B90B
:1046600085B18C2385B9CF9108959C23F0CFA0E02C
:10467000B0E0EDE3F3E20C94943E8AE0D82E9FE3A1
:10468000B92E29E0C22E17B818B815B8B4B880E012
:104690000E9483078C0181E00E948707EC0182E081
:1046A0000E9487079C0180912701893099F417B8EF
:1046B00014B810932F0100932E01D0933101C093B1
:1046C00030013093330120933201CDB7DEB7E9E0FA
:1046D0000C94B03E0330110548F4C330D105C0F549
:1046E0002330310520F381E0826008C081E0083E7C
:1046F000134008F080E0C83ED340B0F3283E33407A
:1047000008F4846087B9C0E0D0E0A89580E00E94FA
:104710007C077C0181E00E9487078C0182E00E9477
:1047200087079C0184E1E81685E0F80608F4389ACA
:10473000043195E0190770F02431354008F43A9AB5
:104740002196C43F91E0D90701F7C092270112C01A
:1047500081E0D1CF399A243195E0390788F73A9A28
:1047600085E0E816F10460F70530110548F72530BB
:10477000310530F700E010E004C00E943D070F5FF4
:104780001F4FC017D107C9F7DA94D1107CCF9DCF46
:10479000CF92DF92EF92FF92CF93DF9300D000D0C1
:1047A000CDB7DEB72091340130913501409136010B
:1047B00050913701809146019AE0C92ED12CE12C0D
:1047C000F12C91E0980F9983213A96E8390791E00E
:1047D0004907510508F580934601A0911A01B0914F
:1047E0001B010E947B3E28E833E140E050E00E943C
:1047F000223E20933401309335014093360150938B
:1048000037010F900F900F900F90DF91CF91FF9095
:10481000EF90DF90CF900895CA01B901A7019601EA
:104820000E94223E8981CDCFA6E0B0E0EAE1F4E229
:104830000C94913E8D83B62E880F2D81820F9FEFB1
:10484000960F890F80931501E22FF0E0ED5BFC4F8E
:1048500044914E83862F90E0FC01ED5BFC4F149158
:10486000FC01EA5BFC4FA490809127018130D1F1DB
:1048700090917D012EE731E0F901D9018A2F821B49
:104880008917A0F1109241011092400181EF8093AD
:1048900046011092340110923501109236011092A7
:1048A0003701E5DE18B8A7B814B915B98D810E9493
:1048B00087077C018B2D0E94870714B810922D0169
:1048C00010922C018C010E191F09902E812E8091BF
:1048D0002C0190912D01843F9140C8F017B818B871
:1048E00014B815B82696ECE00C94AD3E16968C9153
:1048F00016978B1109C08C914D81841305C0448596
:1049000055854C3D554070F311963296B7CF9E8138
:1049100095B994B90E94370714B815B80E943E079C
:10492000A8958D810E9487077801E80EF91E809175
:104930002C0190912D01C92CD82C8E37910520F097
:10494000ABE4EA16F10454F2BDE2EB16B1E0FB066B
:104950000CF03FC280912C0190912D010196909313
:104960002D0180932C01B3CF45E1E41645E0F40618
:104970000CF0D0C080912C0190912D010E9438073D
:104980008D810E9487079C01A8950F5F1F4F809122
:104990002C0190912D018017910780F72C0D3D1D62
:1049A0006701C21AD30A1C141D040CF0EAC189EC79
:1049B000C816D1040CF092CF28EE33E0D6010E9445
:1049C000753E69837A838B839C8397010F2C000C3F
:1049D000440B550B0E94223E890180912C0190913D
:1049E0002D010196A0E0B0E080933C0190933D0141
:1049F000A0933E01B0933F01C7018C0D9D1D0E9405
:104A00004C0820913C0130913D0140913E01509174
:104A10003F01DC010E947B3E6093340170933501BD
:104A2000809336019093370160933C0170933D0170
:104A300080933E0190933F0187EF80934601A8DE6B
:104A4000C0903401D0903501E0903601F0903701EC
:104A50008EE293E00E94163FA8EEB3E0A81BB109D6
:104A600087FDB395A70196010E94853E24E630E0BC
:104A700040E050E00E94223E209334013093350103
:104A8000409336015093370180917D01882329F0AE
:104A900080912701853009F021CF88E0809327019C
:104AA00080914601909147019817C4F0891316CF61
:104AB000C0903401D0903501E0903601F09037017C
:104AC000409138015091390160913A0170913B0158
:104AD0004C155D056E057F0508F000CF409134014F
:104AE0005091350160913601709137014093380142
:104AF0005093390160933A0170933B0180934701D1
:104B00001093430100934201B09244018D81809340
:104B10004501E4CEACDD15B887E087B918B8FE8052
:104B2000FF0CF4B880E480937B0084E580BF8D8126
:104B3000806480937C0087E180937A000E94410723
:104B400010922D0110922C0110928000109285007D
:104B50001092840087E286BB81E280936F0081E03F
:104B600080932B01F5B890912701953009F00CC185
:104B70008093810081E090E00D8002C0880F991F32
:104B80000A94E2F78095877087B9F89483B7817F9C
:104B900083BF80912B01882389F083B7816083BF15
:104BA0007894889583B78E7F83BFF894A895809179
:104BB0002C0190912D0180389C4059F778941092E7
:104BC0008100E0908600F090870010926F0087E9E6
:104BD00080937A0014B815B88D810E9487072091C0
:104BE000580130915901821B930B0C9690932A0126
:104BF0008093290180912C0190912D018034964061
:104C000008F06CCE80912C0190912D0190933F0182
:104C100080933E01F0923D01E0923C0184EF80934D
:104C2000460180912C0190912D0182349105D8F09C
:104C300080913C0190913D01A0913E01B0913F01D6
:104C4000BC01CD0124E630E040E050E00E94223E6D
:104C500020933C0130933D0140933E0150933F012E
:104C600086EF80934601A0915001B09151012091AF
:104C70003C0130913D0140913E0150913F010E9425
:104C80007B3E20E436E040E050E00E94223E20934C
:104C90003C0130933D0140933E0150933F012093EE
:104CA000340130933501409336015093370170DD64
:104CB00080914601843F09F054C0C0903401D090E7
:104CC0003501E0903601F090370190EAC9169FE077
:104CD000D906E104F104C0F4A70196012C543F4F1A
:104CE0004F4F5F4F60EA7FE080E090E00E94223EFD
:104CF000C20ED31EE41EF51EC0923401D0923501BF
:104D0000E0923601F0923701C0903401D090350125
:104D1000E0903601F09037018091150190E0855BBD
:104D20009C4FC114D104A1E0EA06F10488F5D092A9
:104D3000AF01C092AE010E94163F90E0A0E0B0E04B
:104D40008C159D05AE05BF0578F5C81AD90AEA0A83
:104D5000FB0AC0923401D0923501E0923601F09204
:104D600037014E8144B98091340190913501A09171
:104D70003601B09137014997A105B10508F084CEFD
:104D8000ADCD00E010E029CE80938100A7B8FDCE24
:104D900021E030E03093AF012093AE010E94163F36
:104DA00090E0A0E0B0E0D1CF24E1C20ED11CE11C24
:104DB000F11CC816D906EA06FB0610F40E9434134B
:104DC0001092340110923501109236011092370181
:104DD000C8CF00912C0110912D010115110509F486
:104DE000C3CD80912C0190912D0100E010E0C6CD43
:104DF0001F921FB61F9211248F939F93B59904C0E1
:104E000080912B01811109C0B59B10C08091860053
:104E1000909187008A3F910548F480912C019091F0
:104E20002D01019690932D0180932C019F918F91DC
:104E30001F901FBE1F9018951F921FB61F9211241E
:104E40008F939F9310922B01B09B10C0809186008E
:104E5000909187008A3F910548F480912C019091B0
:104E60002D01019690932D0180932C019F918F919C
:104E70001F901FBE1F901895A6E0B0E0E2E4F7E295
:104E80000C94913E88E893E19093530180935201F2
:104E900090931B0180931A018EEB8093160118B832
:104EA00080E187B90E94460717B884E00E94830713
:104EB000AC018B5C9840833F9140A0F481E08093EB
:104EC000280120911A0130911B01AFEBB9E00E943B
:104ED000663E9A0140E050E00E94223E309353012A
:104EE00020935201809152019091530190931B01A4
:104EF00080931A018EE00E9487078EE00E9483074C
:104F000090935901809358010E94F907B0DB18B8BB
:104F100031E037B985E185B934B980E00E94830773
:104F20008C0182E0E82EE7B894E0F92EF4B881E035
:104F30000E948307080F191FF7B820E1D22ED4B8BA
:104F400082E00E948307080F191F15B881E088B915
:104F500087B984B980E00E9483070E94EB078983A8
:104F60009A83E8B8E7B8F4B881E00E9483070E940A
:104F7000EB0729813A81280F391F3A832983F8B832
:104F8000F7B8D4B882E00E9483070E94EB0729811A
:104F90003A81280F391F3E832D8317B818B814B8EB
:104FA00080911A0190911B016C01CC0CDD1CC80E84
:104FB000D91EC901800F911FC81AD90AE12CF12C02
:104FC0009801A0E9BAE10E94663EA70196010E94FD
:104FD000223E49015A013093100120930F012D8187
:104FE0003E81A0E9BAE10E94663EA70196010E94B7
:104FF000223E30930E0120930D012057354E309301
:10500000140120931301C4018057954E909312010F
:105010008093110180E8809316012696ECE00C94B1
:10502000AD3EA5E0B0E0E7E1F8E20C94953E182F24
:1050300069834D830E94220C88E091E00E943C0C21
:1050400021D26981812F0E944737C090B001D09052
:10505000B101E090B201F090B3018091960187FD1B
:1050600093C0C114D104E104F10471F589810E9457
:10507000220C8D81882329F0809109018D3008F45C
:1050800097C00E94E20A80E00E94FD0A80919F0181
:105090000E94A706809196018E3F0CF046C08FE2D9
:1050A00091E00E943C0C8091970190919801A09111
:1050B0009901B0919A0103E028E440919601BC0166
:1050C000CD010E94DF0C31C084E091E00E943C0CD5
:1050D00089810E94220C0E94A10680919F010E945A
:1050E000A7069D81911160C00E94E20A80E00E94A3
:1050F000FD0A8091B0019091B101A091B201B091EF
:10510000B30103E028E447EFBC01CD010E94DF0CAE
:1051100087E191E00E943C0C80E693E00E941E3FF4
:1051200023E046E464EF0E94F60D8091B601909171
:10513000B701A091B801B091B901892B8A2B8B2BB3
:1051400009F449C080E00E94FD0A8091B601909167
:10515000B701A091B801B091B90104E028E440E0A2
:10516000BC01CD010E94DF0C82E191E00E943C0C69
:1051700023E040E26FEF8091B4019091B5010E946D
:10518000F60D0E94E20A2EC084E091E00E943C0CE1
:1051900089810E94220CC114D104E104F10409F0B8
:1051A0009ACFAD81AA2367CF809109018D3080F419
:1051B0008650990B8B5A9C4F0E943C0C80E00E94B9
:1051C000FD0AC114D104E104F10409F092CF5ECFCD
:1051D0000E94E20AF3CF80E00E94E80A8091080171
:1051E000882379F22596E8E00C94B13EA6E0B0E081
:1051F000ECEFF8E20C94973E182F0E94690A809118
:1052000044010E94220C8BE491E00E943C0C9DD34F
:1052100060914401809145010E94AF088D839E8377
:105220008D819E819093410180934001E0904201E5
:10523000F09043018A3F9F4F20F489E091E00E9463
:105240003C0C809145010E94220C112309F449C0B5
:10525000809109019DE0981B892F0E94530A89E6DD
:1052600090E00E943C0C0E946E0A8091380190915F
:105270003901A0913A01B0913B0104E026E440914C
:105280004701BC01CD010E94DF0CAD81BE81AA3F68
:10529000BF4F68F48AE391E00E943C0C22E04DE1AC
:1052A0006EEF80914001909141010E94F60D0E94A5
:1052B000E20A0E94740AE114F10469F083E391E0C8
:1052C0000E943C0C22E045E26FEF809142019091F8
:1052D00043010E94F60D0E94E20A2696E6E00C9435
:1052E000B33E0E94E20ABFCF8F70811104C00E94BA
:1052F0007A0A0C94481908958F3021F490910B018B
:10530000913011F08F5F089580E00895CF9384E786
:1053100090E0FAD76AE080E00E945C0A89E593E0B9
:105320000E943C0CC0E00E94FD0E60E082E00E9402
:10533000FF2062E080E00E94FF200E94690A8091C5
:105340009B018823A9F041E062E080E06ADE8C2FB7
:10535000CBDF88EE93E00E94710E811105C08C2F87
:10536000CBDFC82F8A3FF8F20E94960ACF910895AA
:1053700084E790E00E943C0C89E593E00E943C0C9D
:105380000E946E0A8FE30E94D80B80E00E94E80A18
:105390000E94E20ADCCF1F93CF93DF93C0E0D8E0F6
:1053A0001DE00E94FD0E60E082E03EDAD09327010E
:1053B00080914601843FE9F4809134019091350158
:1053C000A0913601B091370184369105A105B10550
:1053D00080F440E060E082E00E94B33460933401E6
:1053E00070933501809336019093370182EF80935B
:1053F000460180914601823F44F1809347018091AC
:10540000340190913501A0913601B091370180931C
:10541000380190933901A0933A01B0933B0181E0A8
:10542000E5DE8C2F61DF88EE93E00E94710E811122
:1054300006C08C2F61DFC82F8A3F08F4B2CF0E94CC
:10544000960ADF91CF911F9108950E94690A8DE617
:1054500090E00E943C0C80910901912F981B892FAC
:105460000E94530A89E690E00E943C0C0E946E0A5A
:105470008FE30E94D80B0E94E20A0E94740A0E94E5
:10548000E20ACFCFAEE1B0E0E8E4FAE20C948B3E62
:1054900082E08093960180912701813009F0B7C1A5
:1054A00080919B01813009F0B2C120919F01298B2D
:1054B00034E0239FF0011124EE55FE4F808191814D
:1054C000A281B381893042E59407A105B10508F0B6
:1054D0009EC11C0110E0123008F011C289890E949F
:1054E000D50C782E692EE92FF0E0EA5BFC4F049191
:1054F00090E0FC01ED5BFC4FE49115B818B8512F1A
:105500005170552EA0EF2A16310408F084C15111B4
:1055100082C1A0901101B0901201B0E9AB1ABAE1BA
:10552000BB0A21E030E002C0220F331F8A95E2F768
:10553000C901802B87B974E1472E872D0E9480070F
:105540004C01862D0E94870743E08416910410F4D5
:10555000039718F04A944110F0CF50E450937B0029
:1055600084E580BF872D806480937C0097E19093D1
:105570007A00E12CF12C109280001092850010929C
:105580008400A7E2A6BB0E944107212F30E03E8F96
:105590002D8F511047C181E88093810008B986B3EF
:1055A00085FF49C118B81092810040E246BB2091A6
:1055B00086003091870069014091840050918500F8
:1055C0002417350708F445C187E980937A0004E180
:1055D000872D0E9480074C01862D0E9487079C0121
:1055E00083E08816910418F42330310518F0015037
:1055F0000111EECF60900F0170901001620C731CCE
:105600006A0C7B1C209156013091570190E9A91634
:105610009AE1B90608F041C1A1EECA16D104E1042D
:10562000F10408F41EC12154310986E090E0A0E0A5
:10563000B0E0C81AD90AEA0AFB0A552029F0BAE3F1
:10564000CB0ED11CE11CF11C40EAE416F10408F475
:105650002DC1C12CD12C7601812C912CA8EEB3E068
:105660000E94663E6D8B7E8B8F8B988FA0911A0166
:10567000B0911B0195010E94663EA40193010E9416
:10568000223E442755276D897E898F89988D0E94F7
:10569000223EC9010E948B08FC01A4019301C701AD
:1056A000B6010E94E03D6D8B7E8B8F8B988FCF0172
:1056B000A0E0B0E024E0880F991FAA1FBB1F2A9525
:1056C000D1F79C01AD012B5F3F4F4F4F5F4F298FAB
:1056D0003A8F4B8F5C8FCA01B9012AE030E040E07D
:1056E00050E00E94223E442755276D897E898F898C
:1056F000988D0E94223EED8DFE8DEE0FFF1FEE0F66
:10570000FF1F81E090E08C0F9D1FE80FF91F2083A1
:10571000318342835383552009F4D5C0A8951F5F78
:10572000143009F0ECC018B884E00E94500791E0F2
:105730000D811E812F81388549815A816B817C8141
:10574000401751076207730708F090E00D851E852A
:105750002F85388949855A856B857C8582E040177D
:1057600051076207730708F483E024E0829FD001A9
:10577000112441E050E04C0F5D1FA40FB51F54E011
:10578000959FF001112421E030E02C0F3D1FE20F26
:10579000F31F0D911D912D913C91408151816281AA
:1057A0007381041715072607370708F0892F34E09F
:1057B000839FF001112441E050E04C0F5D1FE40F86
:1057C000F51F40815181628173814093970150930D
:1057D00098016093990170939A0180FD9DC080EFBC
:1057E0002816310408F098C08BEF809396018091C1
:1057F000970190919801A0919901B0919A01892BFC
:105800008A2B8B2B11F41092960117B814B86E9650
:10581000E2E10C94A73EE4B907B9A0901101B09061
:10582000120189CE08B90E944A0730E236BB81E8EE
:1058300080938100B4CE80FFB2CE91E096BBA89554
:1058400097012F5F3F4F7901203A310509F0A7CE2C
:10585000A9CE80FFB9CE81E086BB5FEFE51AF50ADD
:10586000B3CE28523109C60165E070E00E94FB3DCD
:105870006451261B310967FD339566E0862F90E061
:10588000A0E0B0E08C159D05AE05BF0508F4D1CEB3
:10589000C12CD12CE12CF12CD0CEC30168E57BE1E9
:1058A0000E94FB3D695F285D3F4FE8CF5BE0C51676
:1058B000D104E104F10408F4CFCE81E0C81AD10884
:1058C000E108F108C9CE94E1C916D104E104F1045C
:1058D000E8F0ED8DFE8D3196EE0FFF1FEE0FFF1FEE
:1058E000A1E0B0E0AC0FBD1FEA0FFB1F20833183A6
:1058F00042835383A8951E5F143008F014CF898922
:105900000E94D50C982789279827EBCDA8951F5F73
:10591000143009F0E0CD07CF8CEF80939601DB01C6
:10592000CA010596A11DB11DBC01CD012AE030E0E0
:1059300040E050E00E94223E20939701309398016E
:105940004093990150939A0152CFA7E0B0E0EBEA5F
:10595000FCE20C948D3E009142011091430101152F
:10596000110509F0B1C0E0914401F0E0EA5BFC4FA1
:1059700024912983E0914501F0E0ED5BFC4F3491E7
:105980003F830E94372318B815B8498147B95F8112
:1059900054B9809145010E9487077C0160914701BD
:1059A000862F845F843008F08FC0809138019091F9
:1059B0003901A0913A01B0913B01615F6D832AE00A
:1059C000422E512C612C712C9C01AD012B5F3F4F5D
:1059D0004F4F5F4F29833A834B835C83CA01B901E0
:1059E000A30192010E94223E49015A01DA01C90134
:1059F0003D813F5F3D83373039F729813A814B81C3
:105A00005C812A35334C4105510508F05DC005978E
:105A100008F45AC08F8185B984B91A8219824981E4
:105A20005A814815590508F453C014B815B8A895FB
:105A300085E080931601809145010E948707898344
:105A40009A8389819A81E816F90608F04AC08E196E
:105A50009F099E838D83C12CD12CC814D90408F4CE
:105A600043C0809145010E9487079C0180E8809394
:105A70001601A895E216F30618F489010E191F09FC
:105A80002D813E8102171307C8F4201B310BA4EFB0
:105A9000B1E00E94663E69837A838B839C838D810B
:105AA0009E819C0140E050E069817A818B819C81DC
:105AB0000E94223E30934301209342010E943723EB
:105AC00017B818B814B815B82796E0E10C94A93E99
:105AD0000E94480729813A812E5F3F4F3A832983EC
